:100000000C943E000C9448000C9448000C9448005A
:100010000C9448000C9448000C9448000C94480040
:100020000C9448000C9448000C9448000C94480030
:100030000C9448000C9448000C9448000C94480020
:100040000C9448000C9448000C9448000C94480010
:100050000C9448000C9448000C9448000C94480000
:100060000C9448000C9448000C9448000C944800F0
:100070000C9448000C9448000C94480011241FBEB6
:10008000CFEFD8E0DEBFCDBF0E9402010C94370154
:100090000C9400000F931F93CF93DF9300D0CDB744
:1000A000DEB78C01CB01F80120813181223031058E
:1000B00079F16CF421153105D1F02130310509F1C8
:1000C0000F900F90DF91CF911F910F9108952330E2
:1000D0003105B1F71182108280ED97E09A83898310
:1000E000BE016F5F7F4FCA010E94DC00E9CF0E9412
:1000F0009C00882329F381E090E0F80191838083BC
:10010000DFCF0E949C008823D9F282E090E0F5CFF7
:100110000E949C008823A1F283E090E0EECFFC01D6
:1001200089B1808381E081830895FC01DB018C919A
:100130008083418308950895FC0189B190E0218175
:1001400002C0959587952A95E2F780FF10C08FE44D
:1001500093EC0197F1F700C0000089B190E0218194
:1001600002C0959587952A95E2F78170089580E001
:100170000895FC0185B1808381E081831282089516
:10018000FC01DB018C9180834183228308950895D3
:10019000FB01289A90E080E020813181821793074B
:1001A0001CF085B115B80895AFECB7E01197F1F7E1
:1001B00000C000000196F0CFFB01299A90E080E09A
:1001C00020813181821793071CF085B115B80895FD
:1001D000AFECB7E01197F1F700C000000196F0CF47
:1001E0000F931F93CF93DF93D82FC92F8B010E94BA
:1001F000DC00B8018D2F9C2FDF91CF911F910F91C3
:100200000C94C80000D000D000D00F92CDB7DEB75C
:100210008FEF84B91AB87E0186E0E80EF11CC701A1
:100220000E948F008E010F5F1F4FC8010E94B9000E
:10023000C7010E949C006801882351F084EF91E07F
:100240009D838C83BE016C5F7F4FC8010E94C800F4
:10025000C6010E94C700C7010E949B0090E080E099
:1002600027960FB6F894DEBF0FBECDBF0895F89461
:02027000FFCFBE
:00000001FF
