:100000000C943E000C9448000C9448000C9448005A
:100010000C9448000C9448000C9448000C94480040
:100020000C9448000C9448000C9448000C94480030
:100030000C9448000C9448000C9448000C94480020
:100040000C9448000C9448000C9448000C94480010
:100050000C9448000C9448000C9448000C94480000
:100060000C9448000C9448000C9448000C944800F0
:100070000C9448000C9448000C94480011241FBEB6
:10008000CFEFD8E0DEBFCDBF0E9425010C94530115
:100090000C9400000F931F93CF93DF9300D0CDB744
:1000A000DEB78C01CB01F80120813181223031058E
:1000B00079F16CF421153105D1F02130310509F1C8
:1000C0000F900F90DF91CF911F910F9108952330E2
:1000D0003105B1F71182108280ED97E09A83898310
:1000E000BE016F5F7F4FCA010E94FF00E9CF0E94EF
:1000F0009600882329F381E090E0F80191838083C2
:10010000DFCF0E9496008823D9F282E090E0F5CFFD
:100110000E9496008823A1F283E090E0EECFFC01DC
:10012000DB018C91808341830895089529B130E0EB
:10013000FC018181A90102C0559547958A95E2F796
:10014000CA0181700895FC0129B130E0818102C0AB
:10015000359527958A95E2F7822F817020FF0FC091
:100160008FE493EC0197F1F700C0000089B190E0B3
:10017000218102C0959587952A95E2F781700895AF
:10018000FC0189B190E0218102C0959587952A955F
:10019000E2F780FF06C08FE493EC0197F1F700C00F
:1001A000000089B190E0218102C0959587952A953C
:1001B000E2F7809581700895FC0185B1808381E02C
:1001C000818312820895FC01DB018C91808341833D
:1001D000228308950895FB01289A90E080E0208111
:1001E0003181821793071CF085B115B80895AFECE3
:1001F000B7E01197F1F700C000000196F0CFFB01C6
:10020000299A90E080E020813181821793071CF0C9
:1002100085B115B80895AFECB7E01197F1F700C0BC
:1002200000000196F0CF0F931F93CF93DF93D82F49
:10023000C92F8B010E94FF00B8018D2F9C2FDF91E9
:10024000CF911F910F910C94EB0000D000D000D003
:100250000F92CDB7DEB78FEF84B91AB87E0186E072
:10026000E80EF11C42E069E270E0C7010E948F00D5
:100270008E010F5F1F4FC8010E94DC00DE2CCF2CC7
:1002800084EFE82EFF24F3948D2D9C2D0E94960080
:100290008823D1F3FD82EC82BE016C5F7F4FC801E1
:0A02A0000E94EB00F1CFF894FFCFAD
:00000001FF
